:020000040800F2
:10000000A80A00209D010008EF210008F121000846
:10001000F5210008F9210008FD210008000000007A
:1000200000000000000000000000000001220008A5
:100030000322000800000000052200080722000833
:10004000B7010008B7010008B7010008B7010008B0
:10005000B7010008B7010008B7010008B7010008A0
:10006000B7010008B7010008072D0008B701000814
:10007000B7010008B7010008B7010008B701000880
:10008000B7010008B7010008B7010008B701000870
:10009000B7010008B7010008B7010008AD2D00083E
:1000A000B7010008B7010008B7010008B701000850
:1000B00031360008A3360008B7010008B701000870
:1000C000B7010008B7010008B7010008B701000830
:1000D000B7010008B7010008B7010008B701000820
:1000E000B7010008B7010008B7010008B701000810
:1000F000B7010008B7010008B7010008B701000800
:10010000B7010008B7010008B7010008B7010008EF
:10011000B7010008B7010008B7010008B7010008DF
:10012000B7010008B7010008B7010008B7010008CF
:10013000B7010008B7010008B7010008B7010008BF
:10014000B7010008B7010008B7010008B7010008AF
:10015000B7010008B7010008B70100082D3D0008ED
:10016000B7010008B7010008B7010008B70100088F
:10017000B7010008B7010008B7010008B70100087F
:10018000B7010008B7010008DFF80CD004F0ACFD9F
:1001900000480047C1010008A80A0020064880471F
:1001A00006480047FEE7FEE7FEE7FEE7FEE7FEE75C
:1001B000FEE7FEE7FEE7FEE7750400088901000898
:1001C0002DED0A8B02F0BAFE03F016F85C4803F03E
:1001D0002CF85B49B1F90010484204F04FFB41ECA8
:1001E0001B0B5749B1F9040004F048FB41EC1C0B10
:1001F000B0EE4B1AF0EE6B1AB0EE4C0AF0EE6C0A51
:1002000005F082F9B0EE40AAF0EE60AA9FED4D0B2A
:1002100053EC102B51EC1A0B04F04FFA41EC190B74
:100220004A4890ED000B53EC102B51EC190B04F0E5
:1002300044FA41EC180B04F0B3FB4549086008464A
:10024000006804F071FB41EC180BB0EE480AF0EEC8
:10025000680A03F00AFB4FF4FA7003F06BFD03F039
:10026000BBF902F0D3FC02F0D9FD02F018FE03F056
:10027000ECF902F0F9FC02F006FD02F014FD02F0C8
:1002800064FD4FF4E13003F01BFB57E03148006898
:10029000012853D13048006804F046FB41EC180BAC
:1002A0002E490320B0EE480AF0EE680A02F0EAF99F
:1002B0002B48006804F038FB41EC180B53EC182B6A
:1002C00028A12A4804F082FF294890ED000B53EC46
:1002D000102B24A1274804F079FF274890ED000B4C
:1002E00053EC102B1FA1254804F070FF244890ED1B
:1002F000000B53EC102B1BA1224804F067FF224B8C
:100300002C221A49154802F04AF8204B2C22194990
:100310001D4802F044F81E4B2C2218491B4802F0DD
:100320003EF81C4B2C221749194802F038F819489E
:1003300003F01DFB4FF4FA7003F0FCFCA6E700008D
:10034000180500200000000000806640C00000206A
:10035000080000207801002080000020AC0200206E
:100360004802002025322E33660000008E02002055
:1003700028020020CA020020B0010020E80200206C
:100380003002002006030020240300208803002000
:10039000EC030020B40400200CB500200190009074
:1003A0007648006840F480307449086000BF7348A4
:1003B000006800F4003000900198401C0190009803
:1003C00018B90198B0F5A04FF1D16C48006800F45D
:1003D000003010B10120009001E000200090009852
:1003E000012846D165484030006840F0805063499C
:1003F000403108606248006840F44040604908604D
:100400005E48083000685D490831086008460068A9
:1004100040F4004008600846006840F4A0500860BE
:100420005848091F0860081F006840F08070091FC5
:10043000086000BF5148006800F000700028F9D043
:1004400040F20570504908604C480830006820F0C0
:1004500003004A49083108600846006840F002007D
:10046000086000BF45480830006800F00C0008280C
:10047000F8D10CBD10B54548006840F47000434900
:1004800008603E48006840F001003C4908600020D8
:100490003A4908310860394800683D490840374901
:1004A00008603C48091D0860081F006820F480208F
:1004B000091F0860002031490C310860FFF76CFF0C
:1004C0004FF0006031498039086010BD70B50020E0
:1004D0000022022300240221284D08352D6805F052
:1004E0000C0020B1042806D0082834D107E02A4D9A
:1004F0002A4E356033E02A4D284E35602FE01F4DDF
:100500002D1D2D68C5F380541C4D2D1D2D6805F043
:100510003F0154B1224DB5FBF1F5184E361D36683A
:10052000C6F3881605FB06F209E01B4DB5FBF1F595
:10053000124E361D3668C6F3881605FB06F20F4DBF
:100540002D1D2D68C5F301456D1C6B00B2FBF3F545
:10055000124E356003E0104D104E356000BF00BFF5
:10056000064D08352D68C5F303150E4E705D0B4D15
:100570002D68C540094E356070BD0000003802404E
:100580000070004019544007003C024088ED00E034
:10059000FFFFF6FE103000240024F40010000020BD
:1005A00000127A0014000020002041490860091D53
:1005B0000860091D0860091D08603E483C49143167
:1005C0000860704700213A498279002A3AD00A46E9
:1005D000126803689A430B461A600A1D1268036882
:1005E0009A430B1D1A60027911440A6803681A4382
:1005F0000A602F4A0832126803689A432C4B08336A
:100600001A601A1D126803689A43294B0C331A604A
:100610004279102A0ED11A1F126803681A43244B1C
:1006200008331A601A1D126803681A43204B0C33F2
:100630001A600DE01E49427911440A6803681A43A2
:100640000A6005E0027911440A6803689A430A6067
:1006500070470021016001710C21417100218171FD
:1006600070471349103109680143114A1032116073
:100670007047014600200E4A143212680A400AB13F
:10068000012000E0002070470949143108607047DC
:1006900001460020064A143212680A400AB10120BD
:1006A00000E00020704702491431086070470000E4
:1006B000003C0140FFFF7F0010B50121880300F0DE
:1006C00088FC00214FF4804000F083FC10BD1C49E1
:1006D000086070471B490862704730B500228B07DD
:1006E0001C0F0F2303FA04F2154B08338C1053F838
:1006F00024309343124C08348D1044F8253023469F
:100700008C1053F824308C07240F00FA04F4234390
:100710000B4C08348D1044F8253030BD0949DC31CC
:10072000086070470849086070470020044920317C
:10073000096801F4807109B1012000E000207047D0
:10074000003801400000274200042742324901439B
:10075000324A1160704770B5002100230F22C4781F
:100760001CB32E4C246804F4E064C4F5E064C4F3C4
:100770000721C1F10404E3B20A4144789C40E1B28C
:100780008478144021430C07210E254C05786155CF
:10079000047804F01F050124AC4005786D11AD000C
:1007A00005F1E025C5F8004109E0047804F01F05D3
:1007B0000124AC401B4D0678761145F8264070BDEB
:1007C000194A0A400243154B1B1F1A60704739B182
:1007D000124A121D12680243104B1B1D1A6006E0DC
:1007E0000E4A121D126882430C4B1B1D1A60704783
:1007F000042808D14FF0E021096941F004014FF0CD
:10080000E022116107E04FF0E021096921F00401C5
:100810004FF0E022116170470000FA050CED00E096
:1008200000E400E080E100E080FFFF1F10B5044617
:100830009848844208D10121084600F086FB002137
:10084000012000F082FB76E09348844208D1012128
:10085000022000F07AFB0021022000F076FB6AE023
:100860008E48844208D10121042000F06EFB002153
:10087000042000F06AFB5EE08948844208D101212F
:10088000082000F062FB0021082000F05EFB52E02F
:100890008448844208D10121102000F056FB002139
:1008A000102000F052FB46E07F48844208D101212D
:1008B000202000F04AFB0021202000F046FB3AE017
:1008C0007A48844208D10121402000F03EFB0021FB
:1008D000402000F03AFB2EE07548844208D1012107
:1008E000802000F032FB0021802000F02EFB22E06F
:1008F0007048844208D10121801500F026FB0021B8
:10090000A01500F022FB16E06B48844208D10121BB
:10091000401500F01AFB0021601500F016FB0AE0FC
:100920006648844207D10121001500F00EFB00212A
:10093000201500F00AFB10BDF0B50A460021002387
:10094000002400BF3DE0012505FA01F3156805EA22
:1009500003049C4234D105684F000326BE40B543D2
:10096000056015794E00B540066835430560157978
:10097000012D02D01579022D16D185684F0003266E
:10098000BE40B543856055794E00B5408668354315
:100990008560456801268E40B54345604568967977
:1009A0008E40B6B235434560C5684F000326BE4051
:1009B000B543C560D5794E00B540C6683543C560BE
:1009C000491C1029BFD3F0BD4FF6FF710160002113
:1009D000017141718171C171704708B54FF4803266
:1009E0000092009A0A430092009AC261C161009A83
:1009F000C261C2690092C269009208BD024600202D
:100A000013690B400BB1012000E000207047014644
:100A1000086980B270470246002053690B400BB151
:100A2000012000E0002070470146486980B270470D
:100A300001837047418370470AB1018300E041831D
:100A400070474161704742694A4042617047F0B562
:100A5000002300244D07ED0E02FA05F3CE1000F13D
:100A6000200555F826504E07F70E0F26BE40B54319
:100A7000CF1000F1200646F82750CE1000F12005D7
:100A800055F8265045EA0304CE1000F1200545F83C
:100A90002640F0BD00000240000402400008024071
:100AA000000C0240001002400014024000180240F6
:100AB000001C0240002002400024024000280240A6
:100AC000F948006840F00100F74908600020F64945
:100AD00008310860F4480068F4490840F2490860A9
:100AE000F348091D0860F348EF4984310860F04875
:100AF0001038091D0860EC48006820F48020EA499D
:100B000008600020E8490C310860E7498C31086032
:100B100070470021E44A921C11701146087070471A
:100B200010B501460022002300204A11012A02D1FB
:100B3000DD4C236808E0022A03D1DB4C70342368C3
:100B400002E0D94C7434236801F01F020124944060
:100B50001C400CB1012000E0002010BD38B5002081
:100B600000900024002500BF3120FFF7D9FF054683
:100B70000098401C00900098B0F5A04F01D0002DC7
:100B8000F2D03120FFF7CCFF08B1012400E00024AF
:100B9000204638BD01460020C34A106820F0F80006
:100BA00040EAC10010607047C349086070470021E7
:100BB000BD4A703211701170012802D004280AD188
:100BC00004E00121B84A7032117005E00521B64AEF
:100BD0007032117000E000BF00BF7047B749086075
:100BE000704770B5049C41EA82150126C6EB530696
:100BF00045EA0645054345EA0465AB4E361D3560BA
:100C000070BDAD4908667047820142EA0172A64B89
:100C100084331A607047A8498866704710B583010D
:100C200043EA016343EA02739F4C8834236010BD9A
:100C3000A14908677047A049C86470470246002070
:100C4000994B0833186820F0EC6042EA010318431E
:100C5000954B08331860704702460020924B0833CA
:100C6000186820F0784042EA010318438E4B08339D
:100C700018607047014600208B4A0832106820F047
:100C8000030008431060704787480830006800F090
:100C90000C00704701460020834A0832106820F09B
:100CA000F000084310607047014600207E4A083279
:100CB000106820F4E050084310607047014600209F
:100CC000794A0832106820F4604040EAC1001060A0
:100CD0007047F0B5002100220024022500260223DF
:100CE000714F08373F6807F00C0121B1042905D086
:100CF000082937D105E0724F076036E0714F076071
:100D000033E0694F3F1D3F68C7F38056664F3F1D74
:100D10003F6807F03F036EB16A4FB7FBF3F7DFF8A8
:100D200088C10CF1040CDCF800C0CCF3881C07FB74
:100D30000CF40CE0624FB7FBF3F7DFF86CC10CF179
:100D4000040CDCF800C0CCF3881C07FB0CF4564FF5
:100D50003F1D3F68C7F301477F1C7D00B4FBF5F7DB
:100D6000076002E0564F076000BF00BF4E4F0837D4
:100D70003F6807F0F0010909534F7A5C0768D740D4
:100D80004760494F08373F6807F4E051890A4E4FE2
:100D90007A5C4768D7408760434F08373F6807F45D
:100DA0006041490B484F7A5C4768D740C760F0BD47
:100DB000002100F44072B2F5407F0AD13A4A08326D
:100DC000116821F4F811414A02401143364A0832B1
:100DD0001160354A70321268C0F30B031A43324B6C
:100DE00070331A6070473549443908607047334999
:100DF0004039086070473649086070470146002056
:100E0000294A8C32106820F01F004A1E1043264ADF
:100E10008C321060704701460020234A8C321068E3
:100E200020F4F8504A1E40EA02201F4A8C3210601B
:100E30007047014600201C4A8C32106820F4401094
:100E400008431060704701460020174A8C32106832
:100E500020F4400008431060704701460020124A09
:100E60008C32106820F440300843106070471949F4
:100E70000860704739B10C4A3032126802430A4B9D
:100E800030331A6006E0084A303212688243064B5B
:100E900030331A607047F9B1034A343212680243A2
:100EA000014B34331A601CE000380240FFFFF6EAC1
:100EB000103000240030002000004742800E4742DE
:100EC0000024F40000127A0024000020FFFCFF0F31
:100ED0005C014742E0114742854A12688243844BD5
:100EE0001A60704739B1824A121D12680243804B62
:100EF0001B1D1A6006E07E4A121D126882437C4B5D
:100F00001B1D1A60704739B1794A0C3212680243CE
:100F1000774B0C331A6006E0754A0C321268824334
:100F2000734B0C331A60704739B1714A1032126832
:100F300002436F4B10331A6006E06D4A103212689C
:100F400082436B4B10331A60704739B1684A243AB8
:100F500012680243664B243B1A6006E0644A243A56
:100F600012688243624B243B1A60704739B1604A71
:100F7000203A126802435E4B203B1A6006E05C4A4E
:100F8000203A126882435A4B203B1A60704739B1AD
:100F9000574A1C3A12680243554B1C3B1A6006E044
:100FA000534A1C3A12688243514B1C3B1A607047EB
:100FB00039B14F4A143A126802434D4B143B1A6040
:100FC00006E04B4A143A12688243494B143B1A60BC
:100FD000704739B1464A103A12680243444B103BFD
:100FE0001A6006E0424A103A12688243404B103BB6
:100FF0001A60704739B13E4A1C32126802433C4BBA
:101000001C331A6006E03A4A1C3212688243384B9D
:101010001C331A60704739B1354A203212680243D6
:10102000334B20331A6006E0314A20321268824383
:101030002F4B20331A60704739B12D4A2432126881
:1010400002432B4B24331A6006E0294A24321268EB
:101050008243274B24331A60704739B1244A2C321B
:1010600012680243224B2C331A6006E0204A2C32CD
:10107000126882431E4B2C331A60704739B11C4AE8
:101080003032126802431A4B30331A6006E0184AB5
:10109000303212688243164B30331A60704739B1D0
:1010A000134A273A12780243114B273B1A7006E085
:1010B0000F4A273A127882430D4B273B1A7070472C
:1010C0000B484030006840F08070094940310860AA
:1010D000704701460020064A283A12680A400AB1C1
:1010E000012000E000207047014926390870704750
:1010F0003438024010B50446F848844209D1012131
:101100004805FFF755FF00214FF40010FFF750FF8F
:1011100018E0F348844209D101218805FFF748FF10
:1011200000214FF48000FFF743FF0BE0ED488442BD
:1011300008D10121C805FFF73BFF00214FF4000053
:10114000FFF736FF10BD2DE9FF4704460D46002688
:10115000B1460427DFF89083A6884FF6C07006409A
:101160006846FFF7B6FDDDF80880E048B8FBF0F010
:101170001FFA80F946EA0906A68020884FF6FE711C
:10118000084020800026DA49286888420CD8286860
:101190004000B8FBF0F087B2042F00DA04273E438A
:1011A00009F10100208427E0E8884BF6FF718842AE
:1011B00006D1286800EB4000B8FBF0F087B209E0E8
:1011C000286800EBC00101EB0010B8FBF0F087B21B
:1011D00047F48047C7F30B0008B947F0010747F40D
:1011E000004006434FF4967009FB00F04FF47A710B
:1011F00090FBF1F0401C2084A683208840F0010081
:10120000208026884FF6F5300640A8886989084373
:1012100006432680A889298908432081BDE8FF87E5
:1012200041F288310160002181804BF6FF71C1805D
:101230000021018141814FF480418181704721B1BA
:10124000028842F00102028004E002884FF6FE7339
:101250001A400280704729B1828C4FF6EF731A4012
:10126000828403E0828C42F01002828470470A4636
:101270000021818C4FF6F073194002F00F031943DF
:101280008184704721B1028842F48072028004E0B8
:1012900002884FF6FF631A400280704721B102882E
:1012A00042F40072028004E002884FF6FF531A40B5
:1012B0000280704712B141F0010101E001F0FE012E
:1012C0000182704721B1028842F48062028004E00A
:1012D00002884FF6FF331A40028070470A46002109
:1012E00081894FF60173194002F0FE031943818191
:1012F000704721B1828942F00102828104E0828933
:101300004FF6FE731A408281704721B1028842F085
:101310004002028004E002884FF6BF731A40028048
:10132000704721B1028842F40042028003E0028843
:10133000C2F30E020280704721B9028842F0800297
:10134000028004E002884FF67F731A4002807047E3
:10135000B1F5804F05D0828B4BF6FF731A40828324
:1013600003E0828B42F4804282837047B1F5006FC4
:1013700004D1028842F40062028004E002884FF245
:10138000FF731A4002807047B1F5005F04D10288F4
:1013900042F40052028004E002884DF6FF731A40C6
:1013A0000280704721B1028842F01002028004E0FE
:1013B00002884FF6EF731A4002807047018270472F
:1013C0000146088AC0B2704721B1028842F48052B7
:1013D000028004E002884EF6FF731A4002807047D4
:1013E000B1F5006F04D1028842F40062028004E08B
:1013F00002884FF2FF731A400280704721B10288C1
:1014000042F02002028004E002884FF6DF731A40A7
:10141000028070470146088B0012704721B1828814
:1014200042F40062828004E082884FF2FF731A4027
:101430008280704721B1828842F48052828004E029
:1014400082884EF6FF731A408280704708B50246C4
:1014500000200090009200980844009000980088B6
:1014600008BD1AB183880B43838002E083888B43D5
:101470008380704770B502460024002500230020B9
:10148000958A138B1B0445EA030626F07F4404EA81
:1014900001068E4201D1012000E0002070BD10B590
:1014A00001460020002300228B8A0A8B120443EAA3
:1014B000020424F07F4010BD0CB50246002000233A
:1014C0000193009300920B0F019321F07F41019B48
:1014D00083B1009B1433009310E0000000540040DF
:1014E00000580040005C004000127A0040420F00AB
:1014F000A0860100090C009B18330093009B1B6819
:101500000B400BB1012000E000200CBD002221F0B7
:101510007F42D3438382704730B5024600200023C8
:10152000948801F0E06504EA154321F07F41948A34
:101530000C4014B10BB1012000E0002030BD0022AE
:1015400021F07F42D34383827047000010B50446E8
:10155000FE48844208D101210846FFF73AFD0021E8
:101560000120FFF736FD9DE0B4F1804F08D1012145
:101570000846FFF71DFD00210120FFF719FD91E04E
:10158000F348844208D101210220FFF711FD002118
:101590000220FFF70DFD85E0EE48844208D10121CD
:1015A0000420FFF705FD00210420FFF701FD79E08D
:1015B000E948844208D101210820FFF7F9FC002105
:1015C0000820FFF7F5FC6DE0E448844208D10121D2
:1015D0001020FFF7EDFC00211020FFF7E9FC61E08F
:1015E000DF48844208D101212020FFF7E1FC0021DF
:1015F0002020FFF7DDFC55E0DA48844208D10121C4
:101600000220FFF7E6FC00210220FFF7E2FC49E0A0
:10161000D548844209D101210804FFF7DAFC0021F2
:101620004FF48030FFF7D5FC3CE0D048844209D12C
:1016300001214804FFF7CDFC00214FF40030FFF7F3
:10164000C8FC2FE0CA48844209D101218804FFF771
:10165000C0FC00214FF48020FFF7BBFC22E0C5480E
:10166000844208D101214020FFF7A2FC0021402044
:10167000FFF79EFC16E0C048844208D1012180207B
:10168000FFF796FC00218020FFF792FC0AE0BB48A0
:10169000844207D101218015FFF78AFC0021A015A3
:1016A000FFF786FC10BD00220288A84B98420ED09E
:1016B000AC4B98420BD0B0F1804F08D0A44B98426D
:1016C00005D0A44B984202D0A34B984204D14FF6C8
:1016D0008F731A404B881A43A04B984207D0A04BF7
:1016E000984204D04FF6FF431A400B891A430280F8
:1016F0004B68C3620B880385944B984202D0994B88
:10170000984201D18B7A03860123838270474FF080
:10171000FF31416000210180018141808172704769
:101720000185828270470A46002101884FF68F7337
:10173000194011430180704741627047C162704790
:101740000146486A70470146088D704721B10288FA
:1017500042F00202028004E002884FF6FD731A4054
:101760000280704721B1028842F00402028004E046
:1017700002884FF6FB731A400280704721B102883D
:1017800042F08002028004E002884FF67F731A4024
:101790000280704702884FF6F7731A400280028871
:1017A0000A430280704702884FF6FF431A400280C6
:1017B00002880A430280704721B1028842F0010288
:1017C000028004E002884FF6FE731A4002807047E0
:1017D00070B5002400220023058C4FF6FE763540BC
:1017E0000584028C8388048B4FF68F752C40B51EC0
:1017F0002C400D882C43751E2A408D892A434D8824
:101800002A43524DA84202D0564DA84213D14FF65A
:10181000F7752A40CD892A434FF6FB752A408D88FB
:101820002A434FF6FF652B404FF6FF552B400D8A9C
:101830002B434D8A2B43838004838D684563028448
:1018400070BD70B5002400220023058C4FF6EF76A2
:1018500035400584028C8388048B48F6FF752C4044
:101860004FF6FF452C400D884FF6FF7606EA05251A
:101870002C434FF6DF752A408D8906EA05152A4369
:101880004D8806EA05152A43304DA84202D0354D51
:10189000A8421DD14FF67F752A40CD894FF6FF76BD
:1018A00006EA05152A434FF6BF752A408D8806EAD9
:1018B00005152A434FF6FF352B404FF2FF752B409D
:1018C0000D8A06EA85052B434D8A06EA85052B43DA
:1018D000838004838D688563028470BD70B50024A5
:1018E00000220023058C4FF6FF6635400584028CEC
:1018F0008388848B4FF68F752C404FF6FC752C40F7
:101900000D882C434FF6FF552A408D894FF6FF7600
:1019100006EA05252A434D8806EA05252A430B4D8C
:10192000A84202D00F4DA84238D14FF2FF752A408D
:10193000CD894FF6FF7606EA05252A434FF6FF3597
:101940002A408D8806EA05252A4319E00000014057
:101950000004004000080040000C0040001000405F
:1019600000140040000401400040014000440140D8
:101970000048014000180040001C004000200040CA
:101980004EF6FF752B404DF6FF752B400D8A06EA8B
:1019900005152B434D8A06EA05152B438380848366
:1019A0008D68C563028470BD70B5002200230024D9
:1019B000058C4EF6FF7635400584038C8488828B37
:1019C00048F6FF752A404FF6FF452A400D884FF62E
:1019D000FF7606EA05252A434DF6FF752B408D89D3
:1019E00006EA05352B434D8806EA05352B43FE4DA7
:1019F000A84202D0FD4DA84208D14BF6FF752C40FD
:101A00000D8A4FF6FF7606EA85152C438480828383
:101A10008D680564038470BD002101804180818050
:101A200081608181C18101824182704770B5034626
:101A3000002000241846183001258D40ACB21D8CC2
:101A4000A5431D8409B108290AD100EB610005688E
:101A50004FF68F76354005600568154305600FE049
:101A60000D1FC5F34E052844056848F6FF7635403E
:101A7000056005684FF6FF7606EA022635430560E5
:101A800070BD4163704781637047C16370470164F3
:101A900070470A460021018B4FF68F73194011439E
:101AA000018370470A460021018B48F6FF731940F5
:101AB0004FF6FF7303EA02231943018370470A4676
:101AC0000021818B4FF68F7319401143818370473A
:101AD0000A460021818B48F6FF7319404FF6FF73C9
:101AE00003EA02231943818370470A460021018BD0
:101AF0004FF6F77319401143018370470A460021DE
:101B0000018B4FF2FF7319404FF6FF7303EA022374
:101B10001943018370470A460021818B4FF6F77302
:101B200019401143818370470A460021818B4FF28F
:101B3000FF7319404FF6FF7303EA022319438183B1
:101B400070470A460021018B4FF6FB731940114381
:101B5000018370470A460021018B4FF6FF3319407D
:101B60004FF6FF7303EA02231943018370470A46C5
:101B70000021818B4FF6FB7319401143818370471D
:101B80000A460021818B4FF6FF3319404FF6FF7351
:101B900003EA02231943818370470A460021018B1F
:101BA0004FF67F7319401143018370470A460021A5
:101BB000018BC1F30E014FF6FF7303EA02231943B1
:101BC000018370470A460021818B4FF67F731940CD
:101BD0001143818370470A460021818BC1F30E01B6
:101BE0004FF6FF7303EA02231943818370470A46C5
:101BF0000021018C4FF6FD73194011430184704799
:101C00000A460021018C4FF6F773194011430184F5
:101C100070470A460021018C4FF6DF7319404FF6DA
:101C2000FF7303EA02131943018470470A46002137
:101C3000018C4FF67F7319404FF6FF7303EA0213CE
:101C40001943018470470A460021018C4FF6FF5367
:101C500019404FF6FF7303EA0223194301847047CA
:101C60000A460021018C4FF2FF7319404FF6FF73B3
:101C700003EA02231943018470470A460021018CBC
:101C80004DF6FF7319404FF6FF7303EA0233194311
:101C90000184704730B5002301248C40A3B2048C2A
:101CA0009C430484048C02FA01F5ADB22C430484F5
:101CB00030BD30B5002304248C40A3B2048C9C4377
:101CC0000484048C02FA01F5ADB22C43048430BDC7
:101CD000828B4FF2FF331A408283828B4FF6FF7361
:101CE00003EA01231A4382837047F0B50C46154678
:101CF000002100220026078C4EF6FF7C07EA0C0725
:101D00000784818B028C4FF6FF7707EA043640F692
:101D1000FF4739404FF6FF7707EA052739434FF66B
:101D2000FF7707EA0337394345F6FF773A4046F431
:101D300080573A4381830284F0BD828B4FF6F37360
:101D40001A408283828B0A4382837047F0B50C4627
:101D50001546002100220026078C4FF6FF6C07EA8B
:101D60000C070784818B028C4FF6FF7707EA042665
:101D70004FF60C7739404FF6FF7707EA03172F43EA
:101D800039434FF2FF573A4046F480773A43818314
:101D90000284F0BD028B4FF2FF331A400283028BA4
:101DA0004FF6FF7303EA01231A4302837047F0B52D
:101DB0000C461546002100220026078C4FF6EF7CCA
:101DC00007EA0C070784018B028C4FF6FF7707EABE
:101DD000041640F6FF4739404FF6FF7707EA03370E
:101DE00039434FF6FF7703E0000001400004014053
:101DF00007EA052739434FF65F773A4046F0100768
:101E00003A4301830284F0BD028B4FF6F3731A400C
:101E10000283028B0A4302837047F0B50C461546D5
:101E200000210022068C4FF6FE773E400684018B8F
:101E3000028C4FF60C7631407E1C06EA03162E43C8
:101E400031434FF6F576324044F0010632430183C8
:101E50000284F0BD70B505460C46208850B9238930
:101E6000A28861882846FFF7D8FFE1882846FFF757
:101E7000CBFF25E0208804280AD12389A288618825
:101E80002846FFF794FFE1882846FFF783FF17E015
:101E9000208808280AD12389A28861882846FFF76C
:101EA00055FFE1882846FFF748FF09E02389A2880B
:101EB00061882846FFF719FFE1882846FFF708FFE9
:101EC00070BD002101804180012181800021C180FD
:101ED000018170472DE9F04105460C460026012797
:101EE000608808B9022600E00026A088012801D1F8
:101EF000022700E001272088A0B92389A2886188F1
:101F00002846FFF78AFFE1882846FFF77DFF2389EF
:101F10003A4631462846FFF74AFFE1882846FFF750
:101F200039FF13E02389A28861882846FFF73FFF25
:101F3000E1882846FFF72EFF23893A463146284696
:101F4000FFF76BFFE1882846FFF75EFFBDE8F081F1
:101F50000146486B70470146886B70470146C86B65
:101F600070470146086C70470A884B881A438B8873
:101F70001A43CB881A430B891A434B891A438B891E
:101F80001A43A0F8442070470021018041808180DD
:101F9000C180018141818181704731B1B0F8442015
:101FA00042F40042A0F8442005E0B0F84420C2F317
:101FB0000E02A0F84420704721B1828842F004024A
:101FC000828004E082884FF6FB731A40828070475B
:101FD00021B1828842F00102828004E082884FF6BB
:101FE000FE731A40828070471AB183890B43838144
:101FF00002E083898B438381704781827047024668
:102000000020138A0B400BB1012000E00020704734
:10201000CA430282704730B50246002000230024E4
:10202000158A05EA0103958905EA010413B10CB18B
:10203000012000E0002030BDCA430282704741EA1F
:102040000203A0F8483070471AB183890B4383819B
:1020500002E083898B438381704721B1828842F0FB
:102060000802828004E082884FF6F7731A4082806B
:10207000704701894FF6F8721140018170470A4696
:10208000002101894FF68F73194011430181704778
:1020900030B504460D4629462046FFF7F0FF20895B
:1020A00040F00700208130BD2DE9F04104460D4687
:1020B00016461F46602D06D13B460122314620467A
:1020C000FFF775FE05E03B46012231462046FFF74B
:1020D000A4FE29462046FFF7D2FF208940F00700E2
:1020E0002081BDE8F08130B50C4600210189C9B2DC
:1020F0004FF6FF7505EA0325154325432943018162
:1021000030BD2DE9F04105460E461746984600249D
:1021100043463A4631462846FFF7E5FF2C894FF6FD
:10212000F870044044F007044FF68F70044044F008
:1021300070042C81BDE8F081F0B504460D461646CA
:102140001F463B46324629462046FFF7CCFF2089F2
:1021500040F480402081F0BD82884FF68F731A4092
:10216000828082880A438280704702894FF6F87322
:102170001A40028102890A430281704702894FF6A0
:102180007F731A40028102890A4302817047F0B5C9
:102190000C4615461E460021002200230189028BB1
:1021A000038C4FF6F877394021434FF6FC473A400D
:1021B00040F201173A434FF6DD773B404FF6FF7789
:1021C00007EA06172F433B43018102830384F0BDD6
:1021D00021B1828842F08002828004E082884FF63A
:1021E0007F731A4082807047A0F850107047704784
:1021F00000BFFEE700BFFEE700BFFEE700BFFEE74F
:102200007047704770477047024612F8013B01F86B
:10221000013B13780B7070470A4610F8013B02F837
:10222000013B0378137070470246104610F8013BDB
:1022300001F8013B10F8013B01F8013B10F8013BAC
:1022400001F8013B03780B7070470A46114610F8FD
:10225000013B01F8013B10F8013B01F8013B10F88C
:10226000013B01F8013B03780B707047024612F8FE
:10227000013B01F8013B13780B7070470A4610F8D8
:10228000013B02F8013B0378137070470246104689
:1022900010F8013B01F8013B10F8013B01F8013B4C
:1022A00010F8013B01F8013B03780B7070470A46B8
:1022B000114610F8013B01F8013B10F8013B01F811
:1022C000013B10F8013B01F8013B03780B707047AC
:1022D000002103E0002242544A1CD1B2425C002A91
:1022E000F8D10021704710B503460C462046FFF791
:1022F000EFFF09E018780D2805D018780A2802D0D9
:10230000187804F8010B5B1C18780028F2D110BD76
:102310000246002003E000230B54431CD8B20B5CA0
:10232000002BF8D1002003E0135C0B54431CD8B2FF
:10233000135C002BF8D1704730B50C46002103E048
:1023400000255D544D1CE9B25D5C002DF8D10021E3
:102350000BE00578A54202D14D1CE9B204E09142A0
:1023600002D1057803F8015B401C0578002DF0D1FF
:1023700030BD30B50446002003E000251D54451C47
:10238000E8B21D5C002DF8D1002000BF04E00D185C
:10239000655D1D54451CE8B29042F8DB30BDF0B5D8
:1023A00004460020002503E000261E54461CF0B21F
:1023B0001E5C002EF8D1002003E0265C1E54461C53
:1023C000F0B2265C002EF8D10546002012B15A5515
:1023D0006E1CF5B204E00E5C2F18DE55461CF0B200
:1023E0000E5C002EF7D100200025F0BD70B504462C
:1023F0000020002303E000251554451CE8B2155CBD
:10240000002DF8D1002011B1D1545D1CEBB204E0D5
:10241000255C1E189555451CE8B2255C002DF7D1AA
:1024200009B11D18515570BD10B502460B4600216B
:1024300000BF505C5C5CA04201DD012010BD505C1F
:102440005C5CA04202DA4FF0FF30F7E7481C81B233
:10245000505C0028EDD1585C0028EAD100BFEDE7C0
:1024600010B50446204603F047F910BD2DE9F047AA
:102470002DED0E8B06464FF001094FF0000A344651
:1024800000250027A8469FEDC80BB0EE40AAF0EE4D
:1024900060AA9FEDC50BB0EE408AF0EE608A9FED1A
:1024A000C20BB0EE409AF0EE609A14E020782E282D
:1024B00004D14FF000094FF0010A0BE0B9F1010F10
:1024C00001D1781CC7B2BAF1010F03D108F10100A4
:1024D00000F0FF08641C20780028E7D1344600256E
:1024E00027E0791B481E02F0C9F941EC1E0BB0EE43
:1024F0004E1AF0EE6E1A9FEDAE0B03F019F9B0EE26
:1025000040CAF0EE60CA2178A1F1300002F0B6F9BD
:1025100041EC1D0B53EC1C2B02F0CFF841EC1B0BD4
:1025200053EC182B02F022F841EC180B641C681CC9
:10253000C5B2BD42D5DB641C002526E0681C02F054
:102540009DF941EC1E0BB0EE4E1AF0EE6E1A9FEDA7
:10255000980B03F0EDF8B0EE40CAF0EE60CA2178B7
:10256000A1F1300002F08AF941EC1D0B53EC1C2B59
:1025700002F015F941EC1B0B53EC192B01F0F6FF9F
:1025800041EC190B641C681CC5B24545D6DB53EC05
:10259000192B51EC180B01F0E9FF41EC1A0BB0EECE
:1025A0004A0AF0EE6A0ABDEC0E8BBDE8F08710B562
:1025B0002DED028BB0EE408AF0EE608A51EC180BE4
:1025C00002F07AF9BDEC028B10BD2DE9F041024614
:1025D0004FF0000C002300200026002400270025D7
:1025E00007E04FF0000801F8008000F1010808F052
:1025F000FF0011F80080B8F1000FF2D10020002A8E
:1026000002DB1746844606E057424FF0010C4FF0BC
:102610002D0801F8018B3C4607E003F1010808F0A2
:10262000FF034FF00A08B4FBF8F4002CF5D13C4648
:1026300023B94FF0300881F8008021E000201DE030
:10264000012500F1010808F0FF0607E005EB850809
:102650004FEA480506F1010808F0FF069E42F5DB47
:10266000B4FBF5F808F1300801F8018BB4FBF5F87C
:1026700005FB184400F1010808F0FF009842DFDB79
:10268000BDE8F0812DE9F0472DED0A8B8AB0B0EE60
:10269000408AF0EE608A80460C464FF00009CA4638
:1026A0009FED410BB0EE409AF0EE609A142105A820
:1026B00001F051FF1421684601F04DFF002700256D
:1026C000002603E00020E055781CC7B2E05D00283A
:1026D000F8D1002751EC180B02F0EEF881469FED7F
:1026E000320B53EC102B51EC180B02F045F90BD8C0
:1026F000484602F0C3F841EC1A0B53EC182B01F0DA
:10270000D9FF41EC190B0EE0484602F0B7F841EC56
:102710001B0B53EC182B01F0CDFF41EC1A0B81F091
:10272000004141EC190B05A94846FFF74EFF404612
:1027300002F0B5F841EC1C0BB0EE4C1AF0EE6C1A3E
:102740009FED1B0B02F0F4FFB0EE40BAF0EE60BA62
:1027500053EC192B51EC1B0B01F0AFFF41EC1A0BA2
:1027600002F0C9F8824669465046FFF72EFF04E0A2
:1027700005A8405D6055681CC5B205A8405D0028ED
:10278000F6D12E20605506E01DF80610681C304476
:102790002154701CC6B21DF806000028F4D10AB0FE
:1027A000BDEC0A8BBDE8F0870000000000000000CF
:1027B000000000000000244010B50446FA4884429E
:1027C00008D101211020FEF704FC00211020FEF7A3
:1027D00000FC57E0F548844209D101214804FEF786
:1027E000E7FB00214FF40030FEF7E2FB4AE0F0483F
:1027F000844209D101218804FEF7DAFB00214FF45D
:102800008020FEF7D5FB3DE0EA48844209D1012152
:10281000C804FEF7CDFB00214FF40020FEF7C8FBF3
:1028200030E0E548844209D101210805FEF7C0FBEC
:1028300000214FF48010FEF7BBFB23E0DF48844209
:1028400008D101212020FEF7C4FB00212020FEF743
:10285000C0FB17E0DA48844209D101218807FEF75E
:10286000A7FB00214FF08040FEF7A2FB0AE0D5480D
:10287000844207D101214005FEF79AFB0021600543
:10288000FEF796FB10BD2DE9FF4705460E460024D6
:10289000A14600BFA046B08900B100BF2C8A24F435
:1028A0004054F08804432C82AC8941F20C6084438C
:1028B000B08831890843718908430443AC81AC8AEC
:1028C00024F44074B0890443AC826846FEF701FAF0
:1028D000B548854202D0B948854202D1DDF80C9056
:1028E00001E0DDF80890A88900F4004040B109EB50
:1028F000C90000EB091031684900B0FBF1F707E0AF
:1029000009EBC90000EB091031688900B0FBF1F751
:102910006420B7FBF0F004012009642101FB10786A
:10292000A88900F4004040B1322000EBC800B0FBA1
:10293000F1F000F00700044308E0322000EB08103B
:102940006421B0FBF1F000F00F0004432C81BDE8DE
:10295000FF874FF41651016000218180C180018101
:102960000C21418100218181704710B50246002071
:10297000108A20F470600B884C8823438C88234392
:10298000CC8823431843108210BD00210180418070
:102990008180C180704721B1828942F400528281D6
:1029A00004E082894DF6FF731A4082817047028BE2
:1029B00002F47F420283028B0A430283704721B1F3
:1029C000828942F40042828103E08289C2F30E02CE
:1029D0008281704721B1828A42F40062828204E0DF
:1029E000828A4FF2FF731A4082827047C1F3080255
:1029F0008280704701468888C0F308007047028AC9
:102A00004FF6F0731A400282028A0A43028270472C
:102A100021B1828942F00202828104E082894FF66C
:102A2000FD731A408281704782894FF2FF731A400A
:102A3000828182890A4382817047028A4FF6DF735E
:102A40001A400282028A0A430282704721B1028A36
:102A500042F48042028204E0028A4BF6FF731A407D
:102A600002827047818941F001018181704721B163
:102A7000828A42F00802828204E0828A4FF6F7736B
:102A80001A4082827047028BD2B20283028B42EAE2
:102A900001220283704721B1828A42F020028282A1
:102AA00004E0828A4FF6DF731A408282704721B1B8
:102AB000828A42F01002828204E0828A4FF6EF732B
:102AC0001A4082827047828A4FF6FB731A408282D4
:102AD000828A0A438282704721B1828A42F00202CE
:102AE000828204E0828A4FF6FD731A408282704728
:102AF0001AB1838A0B43838202E0838A8B438382E9
:102B00007047F0B50346002400260025002040F65B
:102B10006A17B94200D100BF1846C1F3421401F050
:102B20001F06012707FA06F5012C01D10C3004E03D
:102B3000022C01D1103000E014301AB107682F4385
:102B4000076002E00768AF430760F0BD024600205F
:102B5000B1F5007F00D100BF13880B400BB10120FD
:102B600000E00020704701F40072B2F5007F00D150
:102B700000BFCA430280704770B50246002400239C
:102B80000025002040F66A16B14200D100BFC1F313
:102B9000421501F01F03012606FA03F3012D13D19C
:102BA0009689334017E000000010014000440040C7
:102BB00000480040004C004000500040001401401C
:102BC00000780040007C0040022D02D1168A33407C
:102BD00001E0968A33400C12012606FA04F41688A6
:102BE000344013B10CB1012000E0002070BD10B5DD
:102BF0000022002340F66A14A14200D100BF0A124D
:102C000001249440A3B2DC43048010BD1FB5012110
:102C10000820FEF72FF94FF40060029001208DF894
:102C20000C0003208DF80D0000208DF80E008DF8AB
:102C30000F0002A97048FDF77FFE4FF4004000909E
:102C400001210220FEF716F901208DF8040003206F
:102C50008DF8050000208DF806008DF80700694604
:102C60006648FDF769FE1FBD10B520206449086065
:102C7000002008710320487100208871C8715F48E6
:102C8000FDF75AFE10BD10B54FF400605C490860B6
:102C9000002008710320487100208871C8715948CC
:102CA000FDF74AFE10BD10B501210220FEF7E2F843
:102CB00001218803FEF738F90020514908710120ED
:102CC000C871102008604D48FDF736FE0421012030
:102CD000FDF703FD10204C49086000200871082012
:102CE0004871012088710846FDF76CFC0A204749AD
:102CF000087001204870002088700120C8700846C4
:102D0000FDF729FD10BD10B51020FDF7C1FCD8B1AD
:102D100020213A48FDF772FE012809D13C4890ED88
:102D2000000AF7EE000A30EE200A80ED000A08E003
:102D3000374890ED000AF7EE000A30EE600A80EDA9
:102D4000000A10203349086010BD10B50121102081
:102D5000FEF790F801218803FEF7E6F800202849E5
:102D600008710120C871400208602648FDF7E4FDA3
:102D700009210420FDF7B1FC4FF4007022490860DE
:102D80000020087108204871012088710846FDF76D
:102D900019FC17201D490870012048700020887018
:102DA0000120C8700846FDF7D6FC10BD10B54FF4E1
:102DB0000070FDF76DFCE8B14FF400611148FDF7BC
:102DC0001DFE012809D1144890ED000AF7EE000A13
:102DD00030EE600A80ED000A08E00F4890ED000A2E
:102DE000F7EE000A30EE200A80ED000A4FF4007082
:102DF0000849086010BD0000000C024000040240B9
:102E0000440000200010024034000020D8000020C0
:102E10003C000020143C01404000002010B501217E
:102E20004020FEF770F801210220FEF723F84FF44E
:102E300080403B490860022008710320487100204F
:102E400088710120C8713748FDF776FD09220E21EF
:102E50003448FDF7FCFDA3203349088040F2F3100D
:102E600048600020088148803048FEF71CFC602044
:102E70002F490880012048800020888188602B48E5
:102E8000FEF7A6FC08212948FEF72FFE012127485E
:102E9000FEF792FC01212548FEF770FC10BD10B52D
:102EA00001210420FEF72FF801210820FDF7E2FFA1
:102EB0004FF480501A4908600220087103204871BD
:102EC000002088710120C8711A48FDF735FD0222E3
:102ED0000C211848FDF7BBFDA3201349088040F2E0
:102EE000F31048600020088148801348FEF7DBFBA0
:102EF00060200F4908800120488000208881886078
:102F00000D48FEF765FC08210B48FEF7EEFD012198
:102F10000948FEF751FC01210748FEF72FFC10BDC0
:102F200044000020000402409C05002000180040DE
:102F300024050020000C02400008004010B50121CB
:102F40000220FDF797FF01214805FDF7DCFF4FF454
:102F5000C070F84908600220087101208871C871AA
:102F600003204871F448FDF7E7FC04220821F248E9
:102F7000FDF76DFD04220721EF48FDF768FDEF48DE
:102F8000FEF7B8F80020EE4988804BF6FF70C88045
:102F9000002008814FF480604881EA4808604FF4BF
:102FA00080408881E548FEF7CEF80121E348FEF72E
:102FB00046F910BD70B504460D4616460121DF489E
:102FC000FEF760F900BFE049DC48FEF753FA00283D
:102FD000F9D000222146D948FEF76CF900BFDB4941
:102FE000D648FEF747FA0028F9D03146D348FEF715
:102FF000E5F900BFD549891CD048FEF73BFA002807
:10300000F8D02978CD48FEF7D9F900BFCF49891CFF
:10301000CA48FEF72FFA0028F8D00121C748FEF76A
:103020003DF970BD2DE9F04106460D4617461C4698
:1030300000BF4FF40031C148FEF73EFA0028F8D136
:103040000121BE48FEF71EF900BFBF49BB48FEF78D
:1030500011FA0028F9D000223146B848FEF72AF9C3
:1030600000BFBA49B548FEF705FA0028F9D001219A
:10307000B248FEF7E4F83946B048FEF79FF900BFC2
:10308000B249891CAD48FEF7F5F90028F8D00121B6
:10309000AA48FEF7F7F800BFAB49A848FEF7EAF9DF
:1030A0000028F9D001223146A448FEF703F900BFF9
:1030B000A549491CA148FEF7DDF90028F8D016E023
:1030C000012C07D100219D48FEF7FCF801219B4807
:1030D000FEF7E4F89C493F319848FEF7CBF930B150
:1030E0009648FEF76DF928706D1C601E84B2002CA6
:1030F000E6D101219148FEF7E5F8BDE8F081F8B589
:1031000007460D4614461E4601232A4669463846A0
:10311000FFF788FF2EB10120A0409DF80010084362
:1031200005E00120A0409DF8001021EA0000C0B297
:1031300000902A4669463846FFF73CFFF8BD10B5B7
:103140000446234606226B21D020FFF7D8FF10BD8E
:103150002DE9F84381460F4615461C46089E01237B
:103160003A4669464846FFF75DFF0120A040401EF1
:10317000291B491C884000F0FF08281B401C06FA48
:1031800000F0C6B206EA08069DF8000020EA080032
:1031900000909DF80000304300903A46694648464A
:1031A000FFF708FFBDE8F88338B504460823072277
:1031B0001921D0200094FFF7CBFF38BD38B5044665
:1031C000022304221C21D0200094FFF7C1FF38BD48
:1031D00038B50446022304221B21D0200094FFF7B7
:1031E000B7FF38BD38B50446032302226B21D02037
:1031F0000094FFF7ADFF38BD08B50120FFF7F2FFDF
:103200000020FFF7E5FF0020FFF7D8FF0720FFF7BA
:10321000CBFF0020052302461A210090D020FFF7A3
:1032200097FF0020FFF78BFF08BD7FB505460E23F3
:103230003B226946D020FFF7F5FE00240DE0012077
:1032400000EB44001DF800001DF8141040EA0120B6
:1032500000B225F81400601CC4B2072CEFDB7FBD60
:1032600010B52DED0A8B3A48FFF7DFFF3849B1F969
:103270000010484201F002FB41EC1B0B3449B1F94C
:10328000040001F0FBFA41EC1C0BB0EE4B1AF0EE1F
:103290006B1AB0EE4C0AF0EE6C0A02F035F9B0EEA3
:1032A00040AAF0EE60AA9FED2B0B53EC102B51ECD3
:1032B0001A0B01F002FA41EC190B284890ED000BB3
:1032C00053EC102B51EC190B01F0F7F941EC180BF2
:1032D00001F066FB224908601D49B1F90A0001F0BE
:1032E000CDFA41EC1A0B1F4890ED000B53EC102B5C
:1032F00051EC1A0B01F0DBF941EC190B9FED1A0BA5
:1033000053EC102B01F04BFA41EC180B01F048FB89
:10331000174908609FED171A0846D0ED000A1048BB
:1033200090ED000A00F0D6F9134880ED000ABDECDC
:103330000A8B10BD440000200004024000540040ED
:103340008C050020A0860100010003008200070018
:10335000740500200000000000806640C0000020CE
:1033600078000020D00000200000000000606040D5
:103370007C0000206F12833A8000002070B52DED94
:10338000108B00249FED7E0AB0EE408A9FED7C0AF0
:10339000F0EE408A9FED7A0AB0EE40FA7948FFF7E6
:1033A00044FF784881887848784A126820F81210DB
:1033B000744800887649754A126821F812007148ED
:1033C00041897448714A126820F812106F480068E9
:1033D000401C0A21B0FBF1F201FB12006B490860AE
:1033E00000BF21E0684830F9140000EE100AB8EE82
:1033F000C00A30EE080AB0EE408A654830F9140081
:1034000000EE100AB8EEC00A30EE280AF0EE408A4C
:10341000604830F9140000EE100AB8EEC00A30EE31
:103420000F0AB0EE40FA641C0A2CDBDBB2EE040A91
:10343000C8EE000A10EE905A284601F075FA564A76
:1034400003C2B2EE040AC8EE800A10EE905A284673
:1034500001F06AFA514A03C2B2EE040ACFEE000A42
:1034600010EE905A284601F05FFA4D4A03C24A48CE
:1034700090ED000B4B4880ED000B484890ED000BA1
:10348000494880ED000B454890ED000B51EC100BC6
:1034900081F0004141EC1B0BB0EE4B1AF0EE6B1AC1
:1034A0003D4890ED000B02F02FF8B0EE40AAF0EE90
:1034B00060AA1FED580B53EC102B51EC1A0B01F0C6
:1034C000FCF841EC190B394890ED000B53EC102B34
:1034D00051EC190B01F0F1F8354A03C2354890ED73
:1034E000000B53EC102B2E4890ED000B51EC100B01
:1034F00001F0DDF841EC190B1FED650B53EC102BBF
:1035000001F04DF92C4A03C2294890ED000B53EC11
:10351000102B9FED2A0B51EC100B01F0CEF841EC73
:103520001A0B9FED280B53EC102B234890ED000B4A
:1035300051EC100B01F0C1F841EC1D0B2348006861
:1035400001F0F2F941EC1E0B53EC1D2B01F00EF8CB
:1035500041EC1C0B9FED1E0B53EC102B01F0ADF852
:1035600041EC1B0B53EC1A2B01F000F841EC190B4A
:1035700001F016FA15490860BDEC108B70BD000013
:1035800000000000800500206005002050000020A1
:10359000380500204C050020580000206000002065
:1035A000680000208800002090000020C00000205B
:1035B000B0000020D0000020A00000207B14AE4707
:1035C000E17A943FFCA9F1D24D62503F8400002083
:1035D0005C8FC2F5285CEF3F10B501210846FDF76E
:1035E00092FC3648006840083549B0FBF1F0401EB7
:1035F00034490880632048600020088148804FF0EB
:103600008040FEF750F8012211469007FEF7ECFCCF
:1036100001218807FEF7D0F81C202B4908700020F4
:10362000487001208870C8700846FDF794F810BDF6
:1036300010B501218807FEF7EEFC08B1FFF710FE78
:1036400001218807FEF7F8FC10BD10B5012102200A
:10365000FDF759FC1948006840081C49B0FBF1F01F
:10366000401E1849088040F2E73048600020088179
:1036700048801748FEF717F8012211461448FEF754
:10368000B3FC01211248FEF797F81D200E4908707F
:103690000020487088700120C8700846FDF75BF86C
:1036A00010BD10B501210A48FEF7B5FC28B100F0A5
:1036B0004EFD01210648FEF7BFFC10BD10000020A2
:1036C000A08601009C050020D800002020A1070052
:1036D00000040040F0EE401AB0EE602AF0EE410A1D
:1036E0006A4890ED000A72EE402A694890ED000A9F
:1036F00000EEA20A80ED000A664890ED000A6648D6
:10370000D0ED002A10EEA20A6448D0ED002A30EE77
:10371000620A6348D0ED002A70EE222A614890EDDB
:10372000000A00EEA20A80ED000A5A4890ED000A55
:103730005948D0ED002A00EEE20A564880ED000A12
:10374000564890ED000A5448D0ED002A00EEE20AF7
:10375000524880ED000A504890ED000A5248D0EDE2
:10376000002A02EEA00A4C4880ED000A4D4890ED78
:10377000000A4E48D0ED002A30EE220A4C4880ED77
:10378000000A484890ED000A4948D0ED002A80EE32
:10379000223A484880ED003A404890ED000A4448FB
:1037A000D0ED002A80EE223A434880ED003A3848B6
:1037B00090ED000A31EEC00A404880ED000A34481E
:1037C00090ED000A3B48D0ED002A3C4890ED003ACD
:1037D00002EE830A2E4880ED000A2C4890ED000A84
:1037E0003548D0ED002A354890ED003A02EE830AC4
:1037F000264880ED000A2B4890ED000A2D48D0EDB8
:10380000002A284890ED003A02EEC30A80ED000A33
:10381000204890ED000A2748D0ED002A1D4890ED81
:10382000003A02EEC30A80ED000A1C4890ED000A3F
:103830002148D0ED002A1B4890ED003A02EEC30A61
:10384000164880ED000A144890ED000A1A48D0EDA1
:10385000002A104890ED003A02EEC30A0E4880EDAF
:10386000000A0B4890ED000A704710B52DED028B51
:10387000B0EE408AF0EE608A51EC180B01F090F83F
:1038800003490860BDEC028B10BD0000E800002079
:10389000EC000020F4000020FC000020F8000020D4
:1038A000DC000020F0000020E0000020E400002008
:1038B00004010020080100200C010020000100206C
:1038C00010B588B0044601212020FDF72DFB012111
:1038D0000420FDF7CFFAC020019002208DF80800E7
:1038E00000208DF80A0001208DF80B0003208DF8D0
:1038F000090001A9F948FDF71FF804940020ADF86C
:103900001C000C20ADF81A000020ADF81800ADF82E
:103910001600ADF8140004A9F148FEF7B4FF082220
:103920000621EE48FDF793F808220721EB48FDF742
:103930008EF80121EA48FFF72EF8012240F22551C6
:10394000E748FFF7DEF847208DF80C0001208DF8DE
:103950000F0000208DF80D008DF80E0003A8FCF775
:10396000FAFE0121DE48FFF716F808B010BD70B569
:103970000446DCA50BE02178D948FFF737F800BFF3
:103980008021D748FFF7E2F80028F9D0641C20789E
:103990000028F0D10BE02978D148FFF727F800BFC5
:1039A0008021CF48FFF7D2F80028F9D06D1C287885
:1039B0000028F0D170BD00B52DED028BA5B0002020
:1039C0002290239024901F90209021901C901D9075
:1039D0001E9019901A901B901690179018901390A3
:1039E000149015901090119012900D900E900F90D1
:1039F0000A900B900C900790089009900490059005
:103A00000690019002900390B748007801287DD17C
:103A1000B6480078502847D1B4484078492843D167
:103A2000B248807844283FD1B048C07831283BD193
:103A300022AB01222C21AD48FEF77EFC1FAB0222F7
:103A40002C21AA48FEF778FC1CAB03222C21A748A6
:103A5000FEF772FC22A8FEF703FDB0EE408AF0EEFE
:103A6000608A51EC180B00F09BFFA14908601FA869
:103A7000FEF7F6FCB0EE408AF0EE608A51EC180BCF
:103A800000F08EFF9B4908601CA8FEF7E9FCB0EE31
:103A9000408AF0EE608A51EC180B00F081FF9649E5
:103AA00008609248FFF763FF90480078502834D1AF
:103AB0008E484078492830D18C48807844282CD1D1
:103AC0008A48C078322828D110AB01222C2187489F
:103AD000FEF732FC0DAB02222C218448FEF72CFCB1
:103AE0000AAB03222C218148FEF726FC10A8FEF722
:103AF000B7FC824880ED000B0DA8FEF7B1FC8048B2
:103B000080ED000B0AA8FEF7ABFC00E09FE07D48CB
:103B100080ED000B7548FFF72AFF744800785028A5
:103B200032D17248407849282ED170488078442894
:103B30002AD16E48C078332826D107AB01222C2128
:103B40006A48FEF7F9FB04AB02222C216748FEF716
:103B5000F3FB01AB03222C216448FEF7EDFB07A821
:103B6000FEF77EFC684880ED000B04A8FEF778FCA9
:103B7000664880ED000B01A8FEF772FC644880EDFA
:103B8000000B5A48FFF7F3FE58480078532826D117
:103B900019AB01222C215548FEF7CEFB16AB0222B1
:103BA0002C215248FEF7C8FB13AB03222C214F48AF
:103BB000FEF7C2FB19A8FEF753FC564880ED000B38
:103BC00016A8FEF74DFC544880ED000B13A8FEF735
:103BD00047FC524880ED000B4448FFF7C8FE4348BD
:103BE0000078372802D100204D4908603F4800780E
:103BF000382802D101204A4908603C480078392819
:103C000002D101204749086038480078312802D1A4
:103C100001204549086035480078322802D1022049
:103C20004149086031480078332802D103203E49D9
:103C300008602E480078342802D104203A490860F0
:103C40002A480078352802D105203749086025B078
:103C5000BDEC028B00BD10B500202349087040F276
:103C600025511F48FEF788FF88B140F225511C48B6
:103C7000FEF7BDFF1A48FEF7BDFEC1B21A484288E2
:103C8000801D8154801F4088401C17494880164879
:103C90004088401E1449891D085C0A2811D1012062
:103CA000891F08706A31A1F16400FEF731FB0E48EC
:103CB00040880D498880881DFEF70AFB00200A49CC
:103CC000488010BD10B5FFF7C6FF084906486A30A6
:103CD000FEF709FBFFF76FFE10BD00000008024071
:103CE000001401400D0A0000A805002076060020FF
:103CF000180100201C0100202001002028010020C4
:103D0000300100203801002040010020480100203F
:103D100050010020580100206001002068010020AF
:103D200074010020780100207001002010B5FFF719
:103D3000C9FF10BD10B5044601211020FDF7E3F8BE
:103D400042F2CF000C490885601EC862002048621C
:103D500001208882002008820120088000BF0648D8
:103D6000008A0028FBD00020034908800021102091
:103D7000FDF7C9F810BD00000010004010B52DED92
:103D8000068BB0EE408AFE4890ED000AFD48D0ED6B
:103D9000000A30EE200AF0EE000A80EE201AFA48FF
:103DA00080ED001A90ED000AF848D0ED000A30EEE0
:103DB000600AF74880ED000AF34890ED000AF348E6
:103DC00080ED000AF3480068401CF249086008468C
:103DD000006819287ED1EE4890ED000AF3EE040A3F
:103DE00020EE200AEC4880ED000A90ED000A38EE43
:103DF000400AEA4880ED000A006800F095FD41ECB9
:103E0000190BE74890ED000B53EC102B51EC190BFC
:103E100000F053FCE34A03C2E04890ED000AE24898
:103E2000D0ED000A30EE600A10EE101A084600F0DD
:103E30007BFD41EC1A0BDD4890ED000B53EC102B91
:103E400051EC1A0B00F039FC41EC190B9FEDD80B2B
:103E500053EC102B00F031FCD74A03C2D74800685E
:103E600000F062FD41EC1A0BD54890ED000B53ECCD
:103E7000102B51EC1A0B00F020FC41EC190BD1482F
:103E800090ED000B53EC102B51EC190B00F06EFB76
:103E9000CC4A03C2C84890ED000B53EC102BC1482C
:103EA00090ED000B51EC100B00F060FB41EC190B96
:103EB000C44890ED000B53EC102B51EC190B00F0A3
:103EC00055FBC14A03C2B54890ED000AB64880EDE3
:103ED000000A00E002E00020AE490860BA4890ED18
:103EE000000BBDEC068B10BD10B52DED028BB0EEB6
:103EF000408AB64890ED000A38EE000AB44880EDDA
:103F0000000AB44890ED000AB148D0ED000A30EE46
:103F1000600AB14880ED000AB04890ED000AAE4852
:103F2000D0ED000A20EE200AAD4880ED000AAD4831
:103F300090ED000AAC48D0ED000A20EE200AAB4814
:103F400080ED000AAA4890ED000AAA48D0ED000AC8
:103F500060EE200AA04890ED001AA74890ED000AF4
:103F600000EE810A80ED000A9D4890ED000A9F480E
:103F7000D0ED000A30EE200A9F48D0ED000A30EE66
:103F8000200A9E4880ED000A934890ED000A9C4864
:103F900080ED000A9948006800F0C6FC41EC100B67
:103FA000BDEC028B10BD10B52DED0A8BB0EE408A32
:103FB000734890ED000A7348D0ED000A30EE600AB5
:103FC00010EE101A084600F0AFFC8E4A03C28E486D
:103FD00090ED000B53EC102B8A4890ED000B51EC48
:103FE000100B00F06AFB894A03C218EE100A00F0B9
:103FF0009BFC41EC1A0B834890ED000B53EC102B0B
:1040000051EC1A0B00F053FB41EC190B00F0C8FC0B
:104010007F4908600846006800F086FC41EC190BF7
:104020007C4890ED000B53EC102B51EC190B00F079
:1040300044FB794A03C27948006800F075FC41EC02
:10404000190B734890ED000A7548D0ED000A30EE68
:10405000600A10EE101A084600F066FC41EC1B0BDB
:10406000704890ED000B53EC102B51EC1B0B00F043
:1040700024FB41EC1A0B53EC192B00F01EFB6A4A8F
:1040800003C25C48006800F04FFC41EC1A0B674823
:1040900090ED000B53EC102B51EC1A0B00F00DFBC4
:1040A00041EC190B624890ED000B53EC102B51ECD6
:1040B000190B00F05BFA5E4A03C25B4890ED000BFF
:1040C00053EC102B544890ED000B51EC100B00F00A
:1040D0004DFA41EC190B564890ED000B53EC102BA8
:1040E00051EC190B00F042FA524A03C2484890EDD5
:1040F000000A4B4880ED000A2348006800F014FCD9
:1041000041EC1A0B4C48006800F00EFC41EC1C0B13
:104110004A4890ED000B53EC102B51EC1C0B00F0B7
:10412000CCFA41EC1B0B53EC1A2B00F0C6FA41EC15
:10413000190B9FED430B53EC102B00F030FB424A60
:1041400003C23C4890ED000BBDEC0A8B10BD10B5CE
:104150002DED028B3D4890ED000AFFF70FFE3C4825
:1041600080ED000B90ED000B51EC100B00F018FCF3
:1041700008EE100AB0EE480AFFF7B6FE35486BE0CD
:104180003C000020400000200C020020080200201B
:1041900004020020E8010020F8010020FC010020BA
:1041A00028010020D001002000020020380100205A
:1041B0000000000000003440D801002098010020D9
:1041C00030010020E0010020F00100208C010020DF
:1041D0008801002080000020C80100201801002074
:1041E000B8010020200100207C000020C001002038
:1041F0001C01002090010020BC010020C40100200F
:10420000CC01002028020020800100203002002084
:1042100038020020400100201002002094010020FC
:104220003C0200205001002018020020480100201C
:104230002002002040020020A8010020A001002050
:104240000000000000005940B0010020580100208B
:10425000480200205002002080ED000BAC4890ED99
:10426000000AFFF7A0FEAB4880ED000B90ED000BBD
:1042700053EC102BA84890ED000B51EC100B00F004
:1042800075F9A64A03C2A648008800F008FB41EC75
:10429000180BA14890ED000B53EC102B51EC180BB0
:1042A00000F056FB06D89E490988481F00F0E6FA40
:1042B000994A03C29A480088404200F0DFFA41EC74
:1042C000180B954890ED000B53EC102B51EC180B8C
:1042D00000F052FB07D892480088C0F1050000F0BA
:1042E000CDFA8D4A03C28E48008800F0D8FA41EC1E
:1042F000180B8A4890ED000B53EC102B51EC180B67
:1043000000F026FB06D886490988481F00F0B6FA57
:10431000824A03C282480088404200F0AFFA41EC72
:10432000180B7E4890ED000B53EC102B51EC180B42
:1043300000F022FB07D87A480088C0F1050000F0A1
:104340009DFA764A03C2774890ED000ADFED760ABF
:10435000B4EEE00AF1EE10FA7CD890ED000ADFED41
:10436000730AB4EEE00AF1EE10FA73DB9FED700B06
:1043700053EC102B684890ED000B51EC100B00F043
:10438000E7FA2FD29FED6A0B53EC102B634890EDA8
:10439000000B51EC100B00F0DBFA23D25E4890EDDD
:1043A000000B51EC100B81F0004141EC180B00F0B8
:1043B000A2FA61490860594890ED000B51EC100BCE
:1043C00081F0004141EC180B00F095FA5B49086060
:1043D000C9145B48FCF72CFB4FF400415948FCF72B
:1043E00029FB91E09FED520B53EC102B4A4890EDC6
:1043F000000B51EC100B00F0ABFA2CD29FED4C0BE4
:1044000053EC102B454890ED000B51EC100B00F0D5
:10441000B3FA20D2404890ED000B51EC100B81F024
:10442000004141EC180B00F066FA434908603B4834
:1044300090ED000B51EC100B00F05DFA3F49086065
:10444000C9143F48FCF7F4FA4FF400413D48FCF72B
:10445000EFFA59E053E09FED360B53EC102B2E484A
:1044600090ED000B51EC100B00F086FA2BD29FED73
:10447000300B53EC102B294890ED000B51EC100B36
:1044800000F066FA1FD2244890ED000B51EC100B9F
:1044900000F031FA28490860204890ED000B51ECFB
:1044A000100B81F0004141EC180B00F024FA234975
:1044B0000860C9142248FCF7BDFA4FF400412148B6
:1044C000FCF7B8FA20E0144890ED000B51EC100B0B
:1044D00000F011FA18490860104890ED000B51ECFB
:1044E000100B00F008FA15490860C9141448FCF7CD
:1044F000A1FA4FF400411348FCF79AFA04E00020B7
:104500000D4908600D490860BDEC028B10BD00002C
:1045100060010020580200205002002060020020AC
:10452000680200208000002000002042000020C21D
:104530000000000000000000340800403418004073
:10454000000C024000040240D2B201E000F8012B4E
:10455000491EFBD270470022F6E710B513460A4603
:1045600004461946FFF7F0FF204610BD2DE9FE4F27
:10457000804681EA0300C00F0C46009021F0004104
:1045800023F00045B8EB0200A94105D24046214680
:1045900090461C460B46024623F00040104347D08D
:1045A000270DC7F30A00C3F30A510290401A019085
:1045B00040286BDAC3F3130040F4801B0098924646
:1045C00020B10023D2EB030A63EB0B0B0198594691
:1045D000C0F14002504600F046FA06460D465046ED
:1045E0005946019A00F05EFA10EB08006141002480
:1045F00087EA115284EAE7731A4340D0009A62B303
:10460000019A012A4FEA075215DC001B61EB0201F7
:104610004FF0004202EA0752CDE90042001C41F58A
:10462000801132462B4600F0E1FA03B0BDE8F08F6E
:1046300040462146F9E7001B61EB0201001C41F5F1
:10464000801300185B412018A2F5001747EB030107
:1046500040EAD570B6196D4111E06D084FEA360693
:1046600045EAC0754FEA0752001B61EB0201001CCE
:1046700041F5801149084FEA300000195141324696
:104680002B4603B0BDE8F04F00F0A3BA009801221A
:1046900040000023D0EB020263EBE0730098214658
:1046A0004FEAE074B8EB000061EB0401E9E783F046
:1046B00000435BE781F0004158E72DE9FE4F81EAB6
:1046C000030404F0004421F0004100944FF0000B7B
:1046D00023F0004350EA01045ED052EA03045BD0A9
:1046E000C3F30A54C1F30A552C44A4F2F3340194E1
:1046F000A0FB0254C1F3130141F48011C3F313036F
:1047000043F4801301FB024400FB034E840A970A22
:1047100044EA815447EA8357A4FB076802958D0A4F
:1047200005FB07854FEA932C04FB0C542705029DDB
:104730004FEA065847EA1637B5EB08056EEB070C4B
:10474000870E920E47EA811742EA8312A7FB020105
:10475000B6EB0B0164EB00042B0D43EA0C335E183F
:1047600044EB1C50DA465146E7FB0201C5F3130443
:104770004FEA0B3343EA14534FEA0432019C43EAF5
:104780000603A4F10C040294009CCDE900B400F0EF
:104790002DFA03B0BDE8F08F00200146F9E72DE9BE
:1047A000F04D81EA030404F0004B21F0004514466B
:1047B0004FF0000A23F0004150EA050220D054EAED
:1047C00001021DD0C5F30A570246C5F31303C1F316
:1047D0001300C1F30A5640F4801543F48013A7EB8D
:1047E0000608101BD64608F2FD3873EB050002D30D
:1047F00008F1010801E092185B41B8F1000F03DAFB
:1048000000200146BDE8F08D00204FF480110646DF
:1048100084460EE0171B73EB050705D3121B63EBF1
:10482000050306434CEA010C49084FEA3000921890
:104830005B4150EA0107EDD152EA030012D082EA4F
:10484000040083EA0501084305D0101BAB4106D2E2
:104850000122002306E000224FF0004302E06FF047
:10486000010253101AEB06004CEB085110EB0A0042
:1048700041EB0B01BDE8F04D00F0ABB90EB5C10F37
:1048800080EAE0700844CA07002140F233438DE813
:104890000E000A460B4600F0A9F903B000BD0EB5A4
:1048A00040F2334102910021CDE900110A460B4646
:1048B00000F09CF903B000BD70B5C1F30A5201F0DD
:1048C00000450024C1F3130140F2FF3341F480118D
:1048D0009A4201DA002070BD40F233439A42A2F2BC
:1048E000334203DC524200F0CDF800E090402C430C
:1048F000F1D0404270BDC1F30A5210B5C1F31301AB
:1049000040F2FF3341F480119A4201DA002010BDD9
:1049100040F233439A42A2F2334203DC524200F0A7
:10492000B1F810BD904010BD00F0004230F00040E2
:104930000AD0C10D01F56071C0F3160042EA0151C1
:10494000C20840071143704700200146704700002D
:1049500030B5002904DB4FF00044404264EB010114
:10496000002B04DB4FF00044524264EB03038B4204
:1049700008BF824230BD000030B5002904DB4FF093
:104980000044404264EB0101002B04DB4FF0004483
:10499000524264EB0303994208BF904230BD0000CD
:1049A00001F0004330B421F0004150EA010206D08A
:1049B0000A0DA2F56072C1F31301002A02DC30BCBB
:1049C00000207047440F44EAC104C100E01830BC25
:1049D00000EBC25000F0C6B830B50B4601460020CF
:1049E0002022012409E021FA02F59D4205D303FAB1
:1049F00002F5491B04FA02F52844151EA2F1010232
:104A0000F1DC30BD2DE9F05F0546002092469B4663
:104A100088460646814640241BE0284641464746D4
:104A2000224600F02FF853465A46C01A914110D33F
:104A300011461846224600F016F82D1A67EB0108B9
:104A40004F4622460120002100F00DF817EB000927
:104A50004E41201EA4F10104DFDC484631462A46BF
:104A60004346BDE8F09F202A04DB203A00FA02F119
:104A7000002070479140C2F1200320FA03F319434C
:104A800090407047202A04DB203A21FA02F00021EE
:104A9000704721FA02F3D040C2F12002914008434E
:104AA00019467047202A06DBCB17203A41FA02F05C
:104AB00043EAE07306E041FA02F3D040C2F120027B
:104AC00091400843194670470FB4002300B589B0E0
:104AD0000CA900910B996FF00042CB601E4B06931E
:104AE0001E4B07930423CDE901321D4A089202466A
:104AF0006B46002000F090F909B05DF814FB70B52A
:104B000086B006464FF0FF300091CDE9010100204C
:104B100015460C4604903246694604A8FFF7D4FFB8
:104B200003460498211825B108B10A4600E0224640
:104B30002A6000280DD0002B02DD0098884208D0A2
:104B4000081B0094CDE901043246694604A8FFF72A
:104B5000BBFF06B070BD0000515000086F50000848
:104B60000D4D00080029A8BF7047401C490008BF30
:104B700020F00100704710B4B0FA80FC00FA0CF08D
:104B800050EA010404BF10BC704749B1CCF12004C5
:104B900021FA04F411FA0CF118BF01212143084352
:104BA000A3EB0C01CB1D4FEA00614FEA102042BF7E
:104BB000002010BC704700EBC35010440029A4BF74
:104BC00010BC7047401C490008BF20F0010010BC19
:104BD000704710B5002B08DA401C41F10001921813
:104BE0005B411A4301D120F0010010BD2DE9F04DC9
:104BF00092469B4611B1B1FA81F202E0B0FA80F21E
:104C000020329046FFF72FFF04460F4640EA0A0085
:104C100041EA0B0153465A46084313D0114653EA62
:104C2000010019D0C8F140025046FFF72BFF05469E
:104C30000E46504659464246FFF715FF084305D039
:104C4000012004E020463946BDE8F08D00200543F0
:104C500046EAE0762C4337430A986305E40AA0EB62
:104C600008000022FD0A44EA47540A3002D5002019
:104C70000146E9E7010510196941DDE90845001918
:104C80006941BDE8F04DA4E770B521F0004303434E
:104C90000CD0C1F30A550024D5EB040564EB0403E2
:104CA000D617AD1AB34102DB0020014670BD2018B3
:104CB00041EB025170BDC1F30A52C1F3130140F23E
:104CC000FF3341F480119A4202DA00200146704716
:104CD00040F233439A42A2F2334202DC5242FFF7DF
:104CE000D1BEFFF7C0BE0000064C074D06E0E068ED
:104CF00040F0010394E8070098471034AC42F6D323
:104D0000FBF746FA686F0008886F0008C0B24FF4DE
:104D1000F05100F00FBA00002DE9FF4F087881B084
:104D20009946FF2805D0491C2D2804D000240023D3
:104D300008E000230BE00124F9E703EB830300EB19
:104D40004303491C0878FF28F7D104B15B420020D7
:104D50000090147801462D2C01D02B2C04D1521C2C
:104D60002D2C12D00024009400251678FF2E0ED092
:104D70000A24A0FB04C801FB0481002700FB0711E3
:104D8000521C16EB0C006941EFE70124EBE7994454
:104D900050EA01020ED00024AA4D2646DFF8A88270
:104DA00000F0DCF982468B46B9F1000009DAC9F15E
:104DB00000071BE001980021C0E9001105B0BDE823
:104DC000F08F074612E0F80707D022462B46304600
:104DD0004146FFF772FC0646884622462B4610469F
:104DE0001946FFF76AFC04460D467F10002FEAD1F2
:104DF000B9F1000F324643465046594602DAFFF7F2
:104E0000CEFC01E0FFF759FC009A0AB181F00041A5
:104E1000019AC2E90001D1E72DE9FF4F1F468DB08D
:104E2000D7E901464FF0FF382E2045464FF00009E4
:104E30000B90B9696D1C0E988847396A824688477D
:104E40000028F6D1BAF1FF3F0AD024F4D064002E36
:104E500011DDBAF12B0F08D0BAF12D0F0BD102E002
:104E6000404611B0ABE744F48064B9696D1C0E98FC
:104E700088478246761E6946600501D52D2000E0F0
:104E80002B208DF8000001F1010B0DF1200809E045
:104E9000B9696D1C0E98884782460F9844F40074D7
:104EA000761E0560002E02DDBAF1300FF0D00B99AE
:104EB0008A453ED144F0800406E00F99681CA9F1B0
:104EC000010944F400740860B9696D1C761E0E98DF
:104ED000884782463028F0D02BE00B998A4505D1CF
:104EE000200603D444F08004761E18E0504601F0FA
:104EF00095FB08B30DF11301761E44F400748B4545
:104F000008D2AAF130000BF8010B200607D5A9F151
:104F1000010003E0200602D409F101008146A0054A
:104F200002D50F99681C0860B9696D1C0E988847F6
:104F30008246002ED1DC53E0002E51DDBAF1650F20
:104F400002D0BAF1450F4BD1A00549D5B9696D1C06
:104F500024F44074761E0E9888478246002E0CDD9D
:104F60002B2804D0BAF12D0F07D144F48074B9690D
:104F70006D1C0E9888478246761EE00501D52D21CE
:104F800000E02B2108F8011BCDF82C8021E00DF169
:104F90002901761E44F4007488450CD2AAF1300031
:104FA00010F0FF0088F8000002D10B99884509D95C
:104FB00008F1010806E0E00501D5244801E042F2CD
:104FC0000F708146B9696D1C0E98884782460F980C
:104FD0000560002E04DD504601F020FB0028D6D1EC
:104FE000F9690E988847FF208BF8000088F80000C8
:104FF0000020069007904B466A4608A906A8FFF7CE
:105000008BFEA00502D46FF001002AE714F0240FF4
:105010000AD0E00714D1DDE906123868031D3B60B1
:105020000068C0E900120BE0DDE90601FFF7B8FCFB
:105030000146E00704D13868021D3A60006801604B
:1050400028460EE7000024400000F03FF1D8FFFFA3
:10505000426842B1016811F8013B23B1521EC0E918
:105060000012184670470121C160881E70474268CF
:105070005AB1C368016843B983688B4205D0491EA1
:10508000521CC0E90012002070474FF0FF307047FB
:105090002DE9F04D00231A461B1A8A4103DB00203C
:1050A0000146BDE8F08DC1F30A52C1F3130141F48A
:1050B00080154FF0000BD10702D100186D41521E30
:1050C0000027044640F2FF11384601EB620A3E46D3
:1050D0008046024600204FF48011FFF7D3FCC2192E
:1050E0007141BB1846EB0100B4EB030C75EB000CEF
:1050F00004D3E41A65EB000517460E46241908F19F
:1051000001006D4180463428E3DDF91946EB0600C5
:10511000091BA84103D24FF0FF32134601E00022E1
:1051200013461BEB070046EB0A51BDE8F04DFFF7B5
:1051300050BD00007F2801D9002208E0064A02EB9A
:105140005002C007127800D1120902F00F020120AC
:105150009040084070470000286F00080EB540F2EC
:10516000334202920022CDE900221346FFF73EFDB2
:1051700003B000BD70B58C1810F8015B15F0070383
:1051800001D110F8013B2A1106D110F8012B03E0E0
:1051900010F8016B01F8016B5B1EF9D12B0705D4E8
:1051A0000023521E0DD401F8013BFAE710F8013B31
:1051B000CB1A921C03E013F8015B01F8015B521E4D
:1051C000F9D5A142D8D3002070BD00000FB4084B20
:1051D00010B504A902AA039801F028FA044602A90E
:1051E000002001F0BAFD204610BC5DF814FB000061
:1051F0005B6D000803B401984100009850EAC1209B
:1052000018BF04204A0D18BF40F0010040F2FF72A1
:10521000B2EB515F08BF40F00200012808BF052033
:1052200002B070470000000070B59D482DED020BE4
:105230002DED068B079D25F00044A0421DDC99480A
:10524000844202DC0FD1069868B19DED060B53EC49
:10525000102B51EC100BFFF789F9BDEC068B02B057
:1052600041EC100B70BD002DCCBF9FED8F0B9FED5F
:10527000900BBDEC068B02B070BD8F48A04215DDCF
:105280008E48A042D8BF4FF0FF3458DD9DED060B8D
:1052900051EC100BFFF7AEFF042808BF01F0E0F857
:1052A0009DED060BBDEC068B02B070BD9DED060BAF
:1052B00051EC100B01F05EFDCDE9060180489FED39
:1052C000828BA0423CDD8248A0421FDD00249FED7E
:1052D00082AB9DED060B53EC1A2B51EC100BFFF734
:1052E00045F99DED060B41EC190B53EC1A2B51ECD3
:1052F000100BFFF7E2F953EC182BFFF7D8F953EC3A
:10530000192BFFF74CFACDE9060149E09DED060B9C
:10531000012453EC182B51EC100BFFF727F99DEDEE
:10532000060B41EC190B53EC182B51EC100BFFF74B
:10533000BEF953EC192BFFF732FACDE906012FE045
:105340006748A0421FDD02249FED679B9DED060B81
:1053500053EC192B51EC100BFFF7AFF953EC182B52
:10536000FFF704F99DED060B41EC180B53EC192BDC
:1053700051EC100BFFF79BF953EC182BFFF70FFACA
:10538000CDE906010CE09DED060B032453EC102B38
:105390009FED570B51EC100BFFF701FACDE9060119
:1053A0009DED060B53EC102B51EC100BFFF785F91C
:1053B00041EC180B53EC182BFFF77FF941EC190B5C
:1053C0004D480621B0EE490AF0EE690A784400F033
:1053D000CBFF53EC182B51EC100BFFF76EF941EC9F
:1053E000180B4648B0EE490AF0EE690A05217844E8
:1053F00000F0BAFF53EC192B51EC100BFFF75DF9DD
:1054000041EC100B51EC180B53EC102B002C0EDA66
:10541000FFF7ACF89DED061B53EC112BFFF74DF990
:105420009DED061B53EC112BFFF744F935E0FFF718
:105430009DF89DED061B53EC112BFFF73EF941EC57
:10544000100B2F48784400EBC40090ED001B51EC8A
:10545000100B53EC112BFFF72AF99DED061B53ECB3
:10546000112BFFF724F941EC100B2648784400EB90
:10547000C40090ED001B51EC100B53EC112BFFF707
:1054800019F941EC100B002DA2BFBDEC068B02B048
:1054900070BD51EC100B81F0004141EC100B01E7A5
:1054A000000010440000F07F182D4454FB21F93F08
:1054B000182D4454FB21F9BF0000DC3F0000203EC2
:1054C0000000F33F00000000000000000000F03F7B
:1054D0000000E63F00000000000000000000004067
:1054E0000080034000000000000000000000F83FC2
:1054F000000000000000F0BF201B0000D61A0000D2
:10550000601A0000181A000070B56B4E2DED040BE8
:105510002DED028B82B0DDF81CC0DDE905235C4275
:105520002CF000411C4341EAD474049D22F0004059
:10553000B44205D86C422C4340EAD474B44210D92A
:105540009DED060B53EC102B9DED040B51EC100B55
:10555000FFF70CF841EC100B02B0BDEC028B04B06D
:1055600070BDACF14054A4F17F641C430BD0022405
:1055700004EAAC7444EAD27405439FED518B9FED6D
:10558000522B07D010E09DED040B51EC100B01F0F5
:10559000E9FB39E0002C14BF012C9DED040BDBD09E
:1055A000022C34D0032C37D00B439FED491B9FEDC9
:1055B0004A0B0AD0B14218D1B04209D121F0804142
:1055C00020F08040079105900FE0002AC4DA10E037
:1055D000434B7B44002C08BF93ED000BBCD0012C47
:1055E0000CD0022C13D0032C16D0B04219D1002AB3
:1055F000B2DAB0EE410AF0EE610AADE793ED000BCE
:1056000051EC100B81F0004141EC100BA4E7B0EE1F
:10561000480AF0EE680A9FE7B0EE420AF0EE620A2E
:105620009AE7401A00153C28C8BF8DED000B19DC25
:10563000BCF1000FBEBF10F13C0F9FED2B0B8DEDA9
:10564000000B0FDB9DED060B53EC102B9DED040BB7
:1056500051EC100BFFF7A3F801F08CFB01F082FB7B
:10566000CDE90001002C08BF9DED000B3FF474AFA5
:10567000012C10D0022C9FED1E0B53EC102B9DED36
:10568000000B51EC100B0DD0FFF711F853EC182B59
:10569000FFF70DF8B8E7019880F0004001909DED0C
:1056A000000B59E7FFF703F853EC182BFFF702F84C
:1056B000AAE70000000000000000F07F00000000EA
:1056C000182D4454FB210940182D4454FB2109C0D6
:1056D000182D4454FB21F9BF182D4454FB21F93FE8
:1056E0004A19000000000000000000000000000057
:1056F000075C143326A6A13C30B583B09FED0A0B9E
:1057000004468DED000B00F0BBFE0546002221464D
:105710006846FFF7F4F9284600F0C8FE9DED000B3F
:1057200003B030BD000000000000000000000000D9
:105730002DE9F04D2DED040B2DED0E8B94B0DDE930
:105740002350259CDDF888A025F0004624F0004871
:10575000BAF1000F14BF0121002101EB4502FE49FF
:1057600053184A1093422AD3002814BF0123002360
:1057700003EB44030B44F9498B4220D358EA000160
:105780009FEDF79B6FD0DFF8E0B35D4503D1BAF131
:10579000000F05D181E0BAF1000F08BF002100D051
:1057A000012101EB450111F5001F08D8002814BFA5
:1057B0000121002101EB440111F5001F0AD99DEDE3
:1057C000240B53EC102B9DED220B51EC100BFEF72C
:1057D000CDFE40E00027002DBCBFE449884521DA1A
:1057E000E3498845A8BF02271CDAC3451ADCE14912
:1057F00001EB2851142908DDC1F1340220FA02F12D
:1058000001FA02F282420DD108E058B9C1F1140246
:1058100028FA02F101FA02F2424503D101F0010136
:10582000C1F1020756EA0A019FEDD3AB1CD1002C4F
:105830001ADA002D18BF022F01D0012F07D0022045
:1058400000F034FE53EC1A2B51EC190B00E102204E
:1058500000F02CFE7AE041EC100B14B0BDEC0E8B86
:1058600004B0BDE8F08D18E09FEDC5BB9FEDC68B81
:10587000002874D1BD48804522D105F1804010F543
:10588000801008BFBAF1000F07D0B3450ADC002C26
:10589000A8BF9DED240BE0DA0DE0B0EE490AF0EE72
:1058A000690ADAE7002C06DA9DED240B51EC100BA7
:1058B00081F00041CFE7B648784490ED000BCCE78B
:1058C000D84550D1002C4BDA2EB186423DD1BAF1E9
:1058D000000F45D129E0BAF1000F16D0022000F0E8
:1058E000E5FD53EC182B51EC180BFEF7E6FECDE965
:1058F00002019DED220B10EE900A8DED000B61F37D
:105900001E0003909DED020BA7E78DED02BB9DED00
:10591000220B1BEE901A10EE900A8DED000B61F336
:105920001E0003909DED020B97E78DED02AB9DED00
:10593000220B1AEE901A10EE900A8DED000B61F317
:105940001E0003909DED020B87E709DA9DED220B07
:1059500051EC190B53EC102BFEF721FF7BE71DE0F8
:105960009DED220B79E7864218DAB4F1804F0DD015
:10597000A4F10050B0F1FF5010D1002D0EDB9DEDD1
:10598000220B51EC100B01F001FA64E79DED220BA4
:1059900053EC102B51EC100B00F0BABC9DED220B18
:1059A00051EC100B01F0E6F9BAF1000FCDE912014C
:1059B00034D19FED790BDEB1A6F1E040B0F17F600C
:1059C0002CD1002D01DD002C0DDA002D01DD002C85
:1059D0001FDB002D16DA002C14DB012F08BF9FED12
:1059E000700B3FF43AAFB0EE4B0AF0EE6B0A34E7BF
:1059F000022F18BF002D0CD0012F0AD1002DFFF669
:105A00002CAF06E0002DB8BF002C07DA012F3FF4C1
:105A100024AFB0EE4A0AF0EE6A0A1EE7012000EB5E
:105A2000E570049038430CD05F48002580457BDD4D
:105A30005E495F48884513DDB0420CDB002C18DB63
:105A40002CE0012000F032FD53EC1A2B51EC1A0B24
:105A5000FEF7A5FEFFE6B34502DC002C09DC1DE0E5
:105A6000864202DA002C19DA03E05E4529DD002CBB
:105A700014DD022000F01AFD53EC182B51EC180B2A
:105A8000FEF71BFECDE902011BEE900A8DED00BB77
:105A900061F31E0003909DED020BDEE6022000F094
:105AA00005FD00F0DDFC10EE901A19EE900A8DED68
:105AB000020B8DED009B61F31E0003909DED020B28
:105AC000CBE69DED220B53EC192B51EC100BFEF79E
:105AD000EEFD9FED390BCDE90C0153EC102B9DED44
